:020000040800F2
:1000000000100020911C0008D91C0008D91C000811
:10001000D91C0008D91C0008D91C000800000000E9
:10002000000000000000000000000000D91C0008D3
:10003000D91C000800000000D91C0008D91C0008C9
:1000400000000000000000000000000000000000B0
:1000500000000000000000000000000000000000A0
:100060000000000000000000000000000000000090
:100070000000000000000000000000000000000080
:100080000000000000000000000000000000000070
:100090000000000000000000000000000000000060
:1000A0000000000000000000000000000000000050
:1000B0000000000000000000000000000000000040
:1000C0000000000000000000000000000000000030
:1000D0000000000000000000000000000000000020
:1000E0000000000000000000000000000000000010
:1000F0000000000000000000000000000000000000
:1001000000000000000000000000000000000000EF
:1001100000000000000000000000000000000000DF
:1001200000000000000000000000000000000000CF
:1001300000000000000000000000000000000000BF
:1001400000000000000000000000000000000000AF
:10015000000000000000000000000000000000009F
:10016000000000000000000000000000000000008F
:10017000000000000000000000000000000000007F
:08018000000000000000000077
:100188000448054B10B5834203D0044B002B00D024
:10019800984710BD04000020040000200000000063
:1001A80006480749091A8910CB0F591810B5491084
:1001B80003D0044B002B00D0984710BD040000204A
:1001C800040000200000000010B5074C2378002B25
:1001D80009D1FFF7D5FF054B002B02D0044800E0FA
:1001E80000BF0123237010BD0400002000000000A0
:1001F800DC1C0008054B10B5002B03D0044905484A
:1002080000E000BFFFF7CCFF10BDC04600000000B3
:1002180008000020DC1C0008002243088B4274D32D
:1002280003098B425FD3030A8B4244D3030B8B42EF
:1002380028D3030C8B420DD3FF22090212BA030CF8
:100248008B4202D31212090265D0030B8B4219D3D9
:1002580000E0090AC30B8B4201D3CB03C01A5241F9
:10026800830B8B4201D38B03C01A5241430B8B4241
:1002780001D34B03C01A5241030B8B4201D30B032A
:10028800C01A5241C30A8B4201D3CB02C01A524151
:10029800830A8B4201D38B02C01A5241430A8B4214
:1002A80001D34B02C01A5241030A8B4201D30B02FD
:1002B800C01A5241CDD2C3098B4201D3CB01C01A17
:1002C800524183098B4201D38B01C01A5241430921
:1002D8008B4201D34B01C01A524103098B4201D30F
:1002E8000B01C01A5241C3088B4201D3CB00C01A7C
:1002F800524183088B4201D38B00C01A52414308F4
:100308008B4201D34B00C01A5241411A00D2014618
:10031800524110467047FFE701B5002000F006F88B
:1003280002BDC0460029F7D076E770477047C0463F
:1003380070B50C4D0C4E761BB61005D0002408CDB8
:1003480001349847A642FAD101F0C4FC074D084E83
:10035800761BB61005D0002408CD01349847A64274
:10036800FAD170BD001D0008001D0008001D00081E
:10037800041D0008F0B5C64600B50F2A43D90B0086
:10038800032603431E400C000300002E40D1150035
:10039800103D2D09AC462D01A846804400E03B00E5
:1003A800676825685F60E7681D60DF601F00A568F3
:1003B80010379D6010344345F1D165460F230C2456
:1003C80001352D01491913404519144223D08C5980
:1003D800AC5104369C1B032CF9D80324043B9B081E
:1003E80001339B002240ED18C918561E002A07D079
:1003F800002300E02300CA5C5C1CEA549E42F9D149
:1004080004BC9046F0BD0500561E002AF0D1F7E75F
:10041800561E0500ECE71A00F6E7C04610B50024A2
:1004280082B0019400F02EFD6B461C801B88312B96
:1004380019D86B4600219A1C11801388312B09D8D2
:10044800019B01330193138801339BB213801388F6
:10045800312BF5D96B4668461B8801339BB2038064
:100468000388312BE8D900F015FD01AA0421722078
:1004780000F08CFB044B01989C466044431E984155
:10048800000102B010BDC0463CF6FFFF30B583B096
:100498001D006B46DC1D0523237000F0F3FC2B7850
:1004A800A23B5A425341237000F0F4FC2200012180
:1004B800722000F06BFB002003B030BD70B51D004A
:1004C8001C4B84B01A6802AC02929B88A3806B46CE
:1004D800DE1D0123337000F0D5FC297822783378AB
:1004E800914224D00122002368786178884201D0A3
:1004F80001220023A878A178884201D00122002394
:10050800E878E17888420BD00023337000F0C2FC11
:1005180032000121722000F039FB002004B070BDC8
:10052800287921798842EFD1002AEFD0EDE700221F
:10053800DAE7C046F81C000810B582B06B46DC1D2F
:100548000023237000F09EFC00F0A4FC2378022B0B
:10055800FCD1722000F0C0FC422000F0BDFC52200B
:1005680000F0BAFC452000F0B7FC412000F0B4FCD4
:100578004B2000F0B1FC4F2000F0AEFC552000F0FD
:10058800ABFC542000F0A8FC0A2000F0A5FC0020D9
:1005980002B010BD10B500F0BFFB00F0EFFB00F09B
:1005A8002DFC722000F098FC522000F095FC4520AC
:1005B80000F092FC532000F08FFC452000F08CFCEA
:1005C800542000F089FC202000F086FC202000F058
:1005D80083FC202000F080FC0A2000F07DFC00F065
:1005E80069F90B4A0021672000F098F9094A0121AE
:1005F800632000F093F9084A0521012000F08EF9E4
:10060800064A0021692000F089F900F0A9F9FCE701
:100618002504000895040008C504000841050008E1
:1006280030B5C1B06A4600231370012393706B463E
:1006380050700A78DA7043B2002B00DA28E14300E0
:10064800DBB259B25B00002900DA1CE1D9B24BB227
:100658004900002B00DA11E1CBB259B25B00002946
:1006680000DA06E1DBB259B25B00002900DAFBE0F0
:10067800DBB259B25B00002900DAF0E0DBB259B214
:100688005B00002900DAE5E0DBB259B25B00002923
:1006980001DA4D214B400121DBB24B4059B25B00DE
:1006A800002900DAD1E0D9B24BB24900002B00DAB8
:1006B800C6E0CBB259B25B00002900DABBE0DBB27E
:1006C80059B25B00002900DAB0E0DBB259B25B0036
:1006D800002900DAA5E0DBB259B25B00002900DA94
:1006E80072E0DBB259B25B00002968DBDBB259B2B9
:1006F8005B00002901DA4D214B40DBB253405AB26E
:100708005B00002A00DA87E0DAB253B25200002B0D
:1007180000DA7CE0D3B25AB25B00002A00DA71E05A
:10072800DBB25AB25B00002A67DBDBB25AB25B006D
:10073800002A5DDBDBB25AB25B00002A53DBDBB276
:100748005AB25B00002A49DBDAB253B2002B40DB15
:100758005200D3B26A46137100235371002801D1A5
:10076800013313706A46D278002A07D1032140AAC0
:10077800D218013ACB1AFF3A137003236A4612794A
:10078800002A07D1042140AAD218013ACB1AFF3A0D
:10079800137004236A465279002A06D1052140AA1B
:1007A800D218013AFF3ACB1A13706C46A51D20786F
:1007B800013400F091FBAC42F9D141B030BD4D217C
:1007C800594049B2CBB293E74D21594049B2CBB217
:1007D80089E753004D225340DBB2BBE74D2253401B
:1007E8005BB2DAB2B2E74D225A4052B2D3B2A8E7AE
:1007F8004D225A4052B2D3B29EE74D225A4052B2CD
:10080800D3B294E74D225A4052B2D3B28AE74D236D
:100818005A4052B2D3B27FE74D2253405BB2DAB2AC
:1008280074E74D21594049B2CBB256E74D215940A2
:1008380049B2CBB24BE74D21594049B2CBB240E760
:100848004D23594049B2CBB235E74D214B405BB2FD
:10085800D9B22AE74D21594049B2CBB216E74D210A
:10086800594049B2CBB20BE74D21594049B2CBB2FE
:1008780000E74D21594049B2CBB2F5E64D23594026
:1008880049B2CBB2EAE64D214B405BB2D9B2DFE6C2
:100898004D234100594049B2CBB2D3E600B583B0ED
:1008A8006B46D91D032372200B70FFF7B9FE002099
:1008B80003B000BD10B5154C23680F2B1CDC762047
:1008C8005A001349D218920050548A1800215160D6
:1008D80010490133916023600F2B13DC77205A00F5
:1008E8000B49D218920050548A18002151600A49C5
:1008F80001339160236010BD612000F0EDFA236898
:100908000F2BEBDD612000F0E7FAF4E72000002070
:1009180024000020A5080008DD0C000870B50E4E64
:1009280033680F2B0DDCFF2910D85C000B4DE41841
:10093800A400605500202C1901336160A260336067
:1009480070BD612000F0C8FA0120F9E7622000F0CC
:10095800C3FA0120F4E7C04620000020240000204C
:10096800F0B54E464546DE465746E0B5C3B00023CF
:100978006A4602ACD37103AB2600984600F092FA9F
:100988003070002847D00136B045F7D100222378CF
:100998002270032B58D8002B00D1F1E0002002E090
:1009A800002951D02B00E21811781070CD18EDB243
:1009B800032DF5D9734B1968002900DCDCE0724F70
:1009C80060783B78834200D1D8E0002305E05A00E4
:1009D800D2189200BA5C824206D00133DBB21E0004
:1009E8008B42F4DB8E4231D0E3780533AB421CDB1B
:1009F800C246042709E07B1C994601239C46E378FC
:100A0800E24404334B450ADB4F4600F04BFA5346A9
:100A180018700028EFD105236A46D37108E000F06A
:100A280041FA4B46E054002814D004236A46D37197
:100A38006B466520D91DFFF7F3FD43B03CBC9046DB
:100A48009946A246AB46F0BD1D00B3E701236A46AE
:100A5800D371EDE763199B464B46DBB25A1B013253
:100A68009946D3B29C465B46197818708C450FD9C5
:100A780000290DD000239A4601E0002D08D05B46DE
:100A88005A185346157813704919C9B28C45F4D8C9
:100A98004B460921033BDBB269444D2229E0C0B231
:100AA80045B24000002D30DBC0B245B24000002DF9
:100AB80031DBC0B245B24000002D32DBC0B245B2D6
:100AC8004000002D33DBC0B245B24000002D34DBBE
:100AD800C0B245B24000002D35DBC0B245B240007F
:100AE800002D00DA5040013BDBB2C0B20131FF2BD0
:100AF8002DD00D784540E8B240002D06CFD55040A6
:100B080045B2E8B24000002DCEDA504045B2E8B216
:100B18004000002DCDDA504045B2E8B24000002D2B
:100B2800CCDA504045B2E8B24000002DCBDA504054
:100B380045B2E8B24000002DCADA504045B2E8B2EA
:100B48004000002DC9DA504045B2E8B2C7E7E35D7E
:100B5800834203D002236A46D37169E773009E1962
:100B6800094BB6009E19E278A17860784346B468CC
:100B7800A0476B46D8715BE7002633E7002633E7CA
:100B8800002517E72000002024000020F0B5C1B0A0
:100B98000E00002311006A46137050706B46967061
:100BA800002E00D18FE03200D81CFFF7E3FB341D84
:100BB800F31C751D721C9C462700EDB2D2B2FE2EA6
:100BC8005CD06B464D21581C002329E0DBB25EB295
:100BD8005B00002E30DBDBB25EB25B00002E31DB47
:100BE800DBB25EB25B00002E32DBDBB25EB25B00D2
:100BF800002E33DBDBB25EB25B00002E34DBDBB2EF
:100C08005EB25B00002E35DBDBB25EB25B00002E0D
:100C180000DA4B40013AD2B2DBB20130FF2A2ED0C3
:100C2800067873405EB25B00002ECFDA4B405EB2AE
:100C3800F3B25B00002ECEDA4B405EB2F3B25B003B
:100C4800002ECDDA4B405EB2F3B25B00002ECCDA58
:100C58004B405EB2F3B25B00002ECBDA4B405EB283
:100C6800F3B25B00002ECADA4B405EB2F3B25B000F
:100C7800002EC9DA4B405EB2F3B2C7E700236A46DA
:100C8800614653540023D355012D11D90021012366
:100C980001321078002806D140A840180138591AA6
:100CA800FF38017019000133DBB20132AB42F0D1D9
:100CB8006E4600253078013500F00EF90136A54260
:100CC800F8DD41B0F0BD03230122042705259C4629
:100CD800042476E770B50E4B84B01D7819686A460F
:100CE800002D0DD0002300246A460A4E600000192A
:100CF8008000305C0133DBB210551C00AB42F5DBE1
:100D0800C9B27220FFF742FF002004B070BDC04690
:100D18002000002024000020D0B5902404220123C4
:100D28000026032796B0E40504A920000492059341
:100D38000696079700F024FC1022012304A920003E
:100D4800049205930696079700F01AFC03220523E0
:100D58000A920B9300230AA80D93139300F0CCF882
:100D680007220123009201930022002300216846F4
:100D78000292039300F046FB16B0D0BD802170B5F7
:100D88001B4C8902626988B00A43626163699020DA
:100D98000B400193019BC023DB000125039303262D
:100DA800022303A9C005049305950696079500F04C
:100DB800E7FB8021A269C9010A43A261A3690D4822
:100DC8000B400293029B236BB3432B4323630A4BD1
:100DD8000360E1239B02436000238360C3600361D7
:100DE80083610C33436100F05BFD08B070BDC04601
:100DF80000100240E8000020003801408020204A0E
:100E0800D0B55169800201435161536988B00340EC
:100E18000193019B8023902402937F3B039300233B
:100E2800E405049302A9033320000593002600F08B
:100E3800A7FB03271022012302A920000292039393
:100E48000496059700F09CFB0123042202A92000C8
:100E5800029203930496059700F092FB200000226B
:100E6800802100F07DFC20000122102100F078FC98
:100E780001220421200000F073FC08B0D0BDC04658
:100E880000100240902010B501228021C00500F01A
:100E980067FC10BD902010B500228021C00500F02D
:100EA8005FFC10BDF0B583B06B46094EDD1D094CE3
:100EB800082702E0236A3B432362322301222900E8
:100EC800300000F01FFD0028F4D1287803B0F0BDF1
:100ED800E80000200038014000B583B06B46D91DFA
:100EE8000870034B0122034800F002FE03B000BD66
:100EF80088130000E8000020F0B5D6464F46464665
:100F0800C0B5016882B0CB0735D50C22C14C6368E7
:100F18001340042B00D171E163681A40082A00D1FC
:100F280068E1BD4A45681468631C012D00D1AFE132
:100F3800002D00D1B3E1052D00D145E2B54DB74FE5
:100F48002E683E402E602E68B54F3E402E608027AA
:100F580066342500AF4C13600026A446BF0203E0A8
:100F680001330126AB422FD0644624683C42F7D0B7
:100F7800002E00D013608B073CD50C23A54A54687B
:100F8800234200D15AE154682340082B00D151E193
:100F9800A14AC46813685D1C002C18D001279D4C19
:100FA80026683E432660156002252668354200D033
:100FB8004BE127689E1C3D4200D0BBE12468DE1C43
:100FC800254200D0B6E1043313600320C6E00127B0
:100FD800904C2668BE432660156002252668354277
:100FE80008D027689E1C3D4203D02468DE1C254299
:100FF800E9D116600B0719D5874AC46913685D1CC7
:10100800002C00D12DE10127824C666A3E436662BE
:1010180015600225666A354208D1676A9E1C3D4202
:1010280003D1646ADE1C2542CDD016604B076FD50C
:1010380080220025774B5205DC69AC46144208D162
:10104800DC691443DC61DB691A400192019B0123CE
:101058009C468027734E704A346813687F00984610
:1010680001333C421AD1346800253C43346066247D
:101078004444A24613601C00A94605E0012501343A
:10108800A946544500D143E135683D42F6D04D4666
:10109800002D00D13FE1A0461460631C8468012C38
:1010A80000D116E1002C0CD0052C00D138E1012626
:1010B800584C256AB5432562256A0336B54325622F
:1010C8000BE10125534E0227346AAC433462346A7B
:1010D8000335AC434546ED43A846534D3462A94613
:1010E8001360002406E044460133E51801244D4509
:1010F80000D969E7356A2F42F5D1002C00D013607A
:101108006346012B04D1434A484CD3692340D36139
:10111800CB064BD54369012B26D0053300D10BE113
:1011280004213C4B5A6B0A435A635A6B03398A436E
:101138005A63394A11684C1C146002245D6B2C42B6
:1011480034D05E6B8D1C344200D149E15B6BCD1C01
:101158001C4200D144E103200431116002B01CBCE0
:1011680090469946A246F0BD04242A494A6B224378
:101178004A634A6B1343284A4B6313685C1C146028
:1011880002244D6B2C4209D14E6B9D1C344204D174
:10119800496BDD1C0C4200D115E71560F8241D4988
:1011A80083694A6BDB00A24313434B63046A002C38
:1011B8001ED00C22174B59680A40082A27D0164A15
:1011C80011684D1C022C00D1C3E01868184C20404F
:1011D8001860802015601C688004044208D01D68CF
:1011E8008C1C054203D01B68CC1C0342B3D114608D
:1011F8000020B3E76368DB0300D492E6054B1B6865
:101208009B0300D4B7E64368002B00D0B3E6012067
:10121800A4E7C04600100240E4000020FFFFFEFFE4
:10122800FFFFFBFF0070004088130000FFFFFFEF87
:10123800FFFFFFFE5368DB0300D5A9E66B4B1B6875
:101248009B0702D5C368012BE1D1F825674C0369D8
:101258002268DB00AA43134323600B0700D4E5E6AA
:10126800CAE60127614C666ABE43666215600225BC
:10127800666A354200D1D9E6676A9E1C3D4200D1B4
:10128800D3E6646ADE1C254200D09CE61660CDE6F3
:101298008025564E6D0237683D43356057E6534DFD
:1012A800534F2E683E402E602E68524F3E402E60AF
:1012B80066268027B4461360A4440026BF0204E0D3
:1012C80001330126634500D17EE62C683C42F7D104
:1012D8004EE6464E356A2C4334620024A146023459
:1012E800A2464446444D1360404FE443A84606E0F6
:1012F80001260133E518B146454500D964E656464E
:101308003D6A2E42F4D04C46002C00D0F7E6F7E6B2
:101318001460032022E74446023498462300BDE6C1
:101328000426324C256A35432562256A033E354337
:101338002562D2E7166088E70421F8242B4A536B0C
:101348008B435363516B8369A143DB000B435363A6
:101358002CE71C68294E34401C60802415601E68E8
:10136800A404264208D01E688D1C264204D01B689F
:10137800CD1C234200D0EEE60F241C4BD96AA143B2
:10138800C46A2143D962816A406A5C6801431C4887
:1013980004402143596080211868490401431960B9
:1013A800691C1160802118688904084200D01FE771
:1013B8001C68A81C0C4215D11B68E81C0B4211D1F3
:1013C800043515600320C9E68026084DF6022F680B
:1013D8003E432E6080262F6876023E432E60B6E597
:1013E8001560E3E610600020B8E6C0460010024031
:1013F800FFFFFEFFFFFFFBFF88130000FFFFFFFE5C
:10140800FFFFC2FFF0B50123CE464746564C80B5D4
:1014180022681A408A4209D222689A430A43226003
:10142800226813408B4201D0012049E002689307EB
:1014380006D5F0254D4C6368AB4385682B43636044
:10144800D30729D5494D43682C68012B68D0022B56
:1014580042D0A407E8D503266C68B44323436B60E5
:10146800434B99464C461F687B1C2360414CA4465D
:101478000024A0460C346744A44604E00124013348
:10148800A0469F426CD066466C682642F6D1444618
:10149800002C01D04C4623600125334C23682B4097
:1014A8008B4211D8530706D5304A334953680B404D
:1014B800C1680B435360E1220020304BD2031A600D
:1014C8000CBC90469946F0BD2368AB432360236863
:1014D8001D42E7D00120F3E7A401A5D503266C68D7
:1014E800B44323436B60224B1F6899467C1C1C60E5
:1014F800204B9C46002398460C3367449C4604E0E6
:10150800012301349846A7422AD066466B683340C7
:10151800082BF5D14346002BBED04B461C60BBE7D9
:10152800A40300D480E703266C68B44323436B60AC
:101538000F4B1F6899467C1C1C600E4B9C46002371
:1015480098460C3367449C4604E0012301349846CE
:10155800A74205D066466B683340042BF5D1D9E71E
:101568004B4603201F60ABE70020024000100240FA
:10157800E40000208A130000FFF8FFFF00000020AD
:10158800F0B54546DE4657464E46E0B588460968FA
:1015980085B0002300297DD06B4A8A4693466B4A62
:1015A8009446012654469E40344000946ED04246EC
:1015B800516810220F0097430197022F00D170E065
:1015C80002685D0091460322AA404C46D24314406B
:1015D800270003240C40AC40A1463C004F463C4346
:1015E800019F0460013F012F00D877E04446C66898
:1015F8003240A668AE403243C26080225205114292
:1016080044D05A4601245D4603260F2792691E409E
:101618002243AA61AA69B60022404D4CB740A146B0
:1016280090240392039A9A0892004A449568E40524
:10163800BD43A0420ED0474FB84200D17CE0464F90
:10164800B84200D17CE0454FB84200D170E0052790
:10165800B7403D4395606246009C1268E543CC0361
:101668004ED464462A40226062688C034FD4644694
:101678002A406260A268CC0250D464462A40A26024
:10168800E268890251D42A406146CA605246013351
:10169800DA4086D105B03CBC90469946A246AB4696
:1016A800F0BD07250F241D40AD00AC40DA089200BC
:1016B8008218176AA74344462469AC4025003D4375
:1016C800156203225D00AA40D24307681740B94655
:1016D80003270F40AF404C462743076087684446BE
:1016E8001740B946E7684C46AF4027430124876056
:1016F8004768B7430E0926409E403E43466075E75B
:10170800009C22436446226062688C03AFD5009C2B
:10171800224364466260A268CC02AED5009C224394
:101728006446A260E2688902ADD500990A43ABE736
:101738000324B44025438DE70124B440254389E7B9
:101748000227B7403D4385E70010024000040140EE
:10175800000001400004004800080048000C004850
:10176800002A01D0816170478162FCE770B5836807
:1017780004690568234344692968C2692343414CC5
:10178800134321400B432B606B683F49046A0B40AD
:10179800C1680B436B608369A96823433B4C2140B4
:1017A8000B43AB603A4B196B03230B403949CC5CB4
:1017B80080231B029A4224D0022C55D010D9042C25
:1017C8004DD0082C1AD1802341681B0248089C463A
:1017D8006044FEF721FD0004000CE86000240EE0E0
:1017E800002C0BD1E123DB039C4641684808604488
:1017F800FEF712FD0004000CE86000E00124200060
:1018080070BD022C39D014D9042C31D0082C22D127
:10181800802341685B0248089C466044FEF7FCFC54
:101828000F2203075B0F904303439BB20024EB6036
:10183800E5E7002C0FD1E1231B049C4641684808CA
:101848006044FEF7E9FC0F2203075B0F9043034354
:101858009BB2EB60D3E700230124EB60CFE7E123E1
:101868004168DB034808B2E741680B4B4808AEE71C
:10187800E12341681B044808CEE74168074B480844
:10188800CAE7C046F369FFFFFFCFFFFFFFF4FFFF82
:1018980000100240F41C00080024F4000048E8018D
:1018A80070B5041E2AD06923C35CDBB2002B22D09A
:1018B8002423692501262268635513682000B34351
:1018C8001360FFF753FF012818D023680C495A68A2
:1018D80000200A4008215A609A688A439A601A6868
:1018E800623132431A6020220023E3666255625453
:1018F8004832A35470BD68228354D9E70120F9E720
:10190800FFF7FFFFF0B54546DE4657464E466A24C8
:10191800E0B5055D83B0202D67D1002959D0002A94
:1019280057D0802685687601B54249D06826875DFC
:10193800012F5AD0012787550026C666223606553C
:10194800684CA3462468661CA1465C462660582459
:10195800025302340253002D00D17EE05C22825AE9
:101968009446002201924A46D2439246802252016E
:101978005A2420259046025B002A14D0025B013AC3
:1019880092B2025302685F1C31D1D7693D42FCD044
:101998008768474554D06746928C3A400A70025B84
:1019A8000131002AEAD1019B002B01D05B461E6061
:1019B8006A232022C2540022023BC254002009E0BC
:1019C8000569002D0DD101352E00A8460E4000D125
:1019D8006FE0012003B03CBC90469946A246AB4656
:1019E800F0BD6825465D012E46D10220F2E7D76991
:1019F8003D42CDD1002B39D0771C01974F46F61BBD
:101A0800019FB34207D3D669354222D156460137E2
:101A1800F619B342F7D25B461F60136832490B4090
:101A280013609368A331FF318B43936020236922AD
:101A380083540132835400224833C2540320C9E737
:101A48000769002FA7D16746928C3A400A80023175
:101A580091E73E00012701979AE70269002A22D1FF
:101A6800FF245C328452A33294467AE7019B002B10
:101A7800D3D05B461E60D0E7012646550025C566D3
:101A880022350555174CA3462468661CA1465C46BA
:101A9800266058240253023402535C22A53484522F
:101AA800A33294465DE75C227F2484522332944615
:101AB80057E76827C55D012D97D04546C5552225AE
:101AC800C6660555074CA3462468661CA1465C46B5
:101AD80026605824025302340253044A0234025343
:101AE80094463EE7E40000205FFEFFFFFF01000090
:101AF800F0B5DE4657464E4645466924E0B5045DD6
:101B080083B0202C00D092E0002956D0002A54D06F
:101B1800802485686401AC46A54249D06824055DE7
:101B2800012D00D183E00125055500242035C46628
:101B380069340555524C8026A34624683135A146A0
:101B4800671C5C462760502402530234025300226B
:101B580001924A46D2439246802252019046046836
:101B6800425B002A10D0425B013A92B242535A1C9F
:101B78002BD1E2691642FCD0C4454FD00A78013116
:101B88002285425B002AEED1019A002A00D173E037
:101B98005A4617604022591C55D1E3691A42FCD0B5
:101BA80069232022C2540022013BC254002005E0D0
:101BB8000469002CB2D1CC07B0D5012003B03CBCDD
:101BC80090469946A246AB46F0BDE2691642D3D18B
:101BD800002B32D07A1C01924A46BF1A019ABB42A6
:101BE80007D3E7693E4224D157460132BF189F42C6
:101BF800F7D95B461A602368224A13402360A3681A
:101C0800A332FF329343A360202368328354013206
:101C1800835400224833C2540320CFE70269002AC4
:101C2800ACD10A880231D205D20D228598E702206C
:101C3800C4E71700012201929EE7019B002BDAD02E
:101C48005B461F60D7E7E2695206A9D4002BD2D0C1
:101C58004A46791CBF1ABB4208D34026D243E569DD
:101C68002E4206D101315518AB42F8D25B461960B5
:101C7800C1E75B46196093E75A4617688AE7C0468A
:101C8800E40000205FFEFFFF002103E00B4B5B58E0
:101C9800435004310A480B4B42189A42F6D30A4A79
:101CA80002E0002313600432084B9A42F9D300E0A3
:101CB80000BFFEF73DFBFEF76DFCFEE7081D0008C0
:101CC800000000200400002004000020580100202B
:101CD800FEE70000F8B5C046F8BC08BC9E46704751
:0C1CE800F8B5C046F8BC08BC9E4670472A
:0C1CF40000040802746F756368000000B3
:041D0000FD010008D9
:041D0400D101000801
:041D080000127A004B
:0400000508001C9142
:00000001FF
